{
  "address": "0x4ddd44B7121c8b6c350d7a855A67c5018c04Ec5d",
  "abi": [
    {
      "inputs": [
        {
          "internalType": "address",
          "name": "_lending",
          "type": "address"
        },
        {
          "internalType": "address",
          "name": "_cornDEX",
          "type": "address"
        },
        {
          "internalType": "address",
          "name": "_corn",
          "type": "address"
        }
      ],
      "stateMutability": "nonpayable",
      "type": "constructor"
    },
    {
      "anonymous": false,
      "inputs": [
        {
          "indexed": false,
          "internalType": "address",
          "name": "user",
          "type": "address"
        },
        {
          "indexed": false,
          "internalType": "uint256",
          "name": "loops",
          "type": "uint256"
        }
      ],
      "name": "LeveragedPositionClosed",
      "type": "event"
    },
    {
      "anonymous": false,
      "inputs": [
        {
          "indexed": false,
          "internalType": "address",
          "name": "user",
          "type": "address"
        },
        {
          "indexed": false,
          "internalType": "uint256",
          "name": "loops",
          "type": "uint256"
        }
      ],
      "name": "LeveragedPositionOpened",
      "type": "event"
    },
    {
      "inputs": [],
      "name": "claimOwnership",
      "outputs": [],
      "stateMutability": "nonpayable",
      "type": "function"
    },
    {
      "inputs": [],
      "name": "closeLeveragedPosition",
      "outputs": [],
      "stateMutability": "nonpayable",
      "type": "function"
    },
    {
      "inputs": [
        {
          "internalType": "uint256",
          "name": "reserve",
          "type": "uint256"
        }
      ],
      "name": "openLeveragedPosition",
      "outputs": [],
      "stateMutability": "payable",
      "type": "function"
    },
    {
      "inputs": [],
      "name": "owner",
      "outputs": [
        {
          "internalType": "address",
          "name": "",
          "type": "address"
        }
      ],
      "stateMutability": "view",
      "type": "function"
    },
    {
      "inputs": [],
      "name": "withdraw",
      "outputs": [],
      "stateMutability": "nonpayable",
      "type": "function"
    },
    {
      "stateMutability": "payable",
      "type": "receive"
    }
  ],
  "transactionHash": "0x1d6f8ce862b93b193b04e5cc95e257873dec11b794b85e9c3ef9fb7cea936478",
  "args": [
    "0xBA8DA0d969BDc80Ac898Ed6D9C2095759d89e2D4",
    "0x781725ccd2D1e05A302f9DD1Fc058b74948CB827",
    "0xCa0020b0FBF296f2f6E85320e2c1F334bBC9bc08"
  ],
  "numDeployments": 1,
  "solcInputHash": "9be07ad51d097ac82398373c6ea078d5",
  "bytecode": "0x608060405234801561001057600080fd5b50604051610bb0380380610bb083398101604081905261002f91610176565b600080546001600160a01b038581166001600160a01b0319928316179092556001805485841690831681179091556002805493851693909216831790915560405163095ea7b360e01b81526004810191909152600019602482015263095ea7b3906044016020604051808303816000875af11580156100b2573d6000803e3d6000fd5b505050506040513d601f19601f820116820180604052508101906100d691906101b9565b5060025460005460405163095ea7b360e01b81526001600160a01b039182166004820152600019602482015291169063095ea7b3906044016020604051808303816000875af115801561012d573d6000803e3d6000fd5b505050506040513d601f19601f8201168201806040525081019061015191906101b9565b505050506101e2565b80516001600160a01b038116811461017157600080fd5b919050565b60008060006060848603121561018b57600080fd5b6101948461015a565b92506101a26020850161015a565b91506101b06040850161015a565b90509250925092565b6000602082840312156101cb57600080fd5b815180151581146101db57600080fd5b9392505050565b6109bf806101f16000396000f3fe60806040526004361061004e5760003560e01c806319adbcf11461005a5780633ccfd60b146100715780634e71e0c8146100865780635d35fd1d146100aa5780638da5cb5b146100bd57600080fd5b3661005557005b600080fd5b34801561006657600080fd5b5061006f6100f9565b005b34801561007d57600080fd5b5061006f6105c0565b34801561009257600080fd5b5061006f600380546001600160a01b03191633179055565b61006f6100b83660046108eb565b6106c4565b3480156100c957600080fd5b506003546100dd906001600160a01b031681565b6040516001600160a01b03909116815260200160405180910390f35b6003546001600160a01b0316331461012c5760405162461bcd60e51b815260040161012390610904565b60405180910390fd5b60005b600080546040516324842b9960e21b81523060048201526001600160a01b0390911690639210ae6490602401602060405180830381865afa158015610178573d6000803e3d6000fd5b505050506040513d601f19601f8201168201806040525081019061019c9190610949565b6000546040516330897f1760e11b8152600481018390529192506001600160a01b031690636112fe2e90602401600060405180830381600087803b1580156101e357600080fd5b505af11580156101f7573d6000803e3d6000fd5b5050505047811461025a5760405162461bcd60e51b815260206004820152602760248201527f6d6178576974686472617761626c65206973206e6f7420657175616c20746f2060448201526662616c616e636560c81b6064820152608401610123565b600154604051634a5c8c6f60e11b8152600481018390526001600160a01b03909116906394b918de90839060240160206040518083038185885af11580156102a6573d6000803e3d6000fd5b50505050506040513d601f19601f820116820180604052508101906102cb9190610949565b506002546040516370a0823160e01b81523060048201526000916001600160a01b0316906370a0823190602401602060405180830381865afa158015610315573d6000803e3d6000fd5b505050506040513d601f19601f820116820180604052508101906103399190610949565b60008054604051632a5f2c2360e01b815230600482015292935090916001600160a01b0390911690632a5f2c2390602401602060405180830381865afa158015610387573d6000803e3d6000fd5b505050506040513d601f19601f820116820180604052508101906103ab9190610949565b82116103b75781610423565b600054604051632a5f2c2360e01b81523060048201526001600160a01b0390911690632a5f2c2390602401602060405180830381865afa1580156103ff573d6000803e3d6000fd5b505050506040513d601f19601f820116820180604052508101906104239190610949565b9050801561048e57600054604051636b3c2cc560e11b8152600481018390526001600160a01b039091169063d678598a90602401600060405180830381600087803b15801561047157600080fd5b505af1158015610485573d6000803e3d6000fd5b5050505061056f565b6001546002546040516370a0823160e01b81523060048201526001600160a01b03928316926394b918de9216906370a0823190602401602060405180830381865afa1580156104e1573d6000803e3d6000fd5b505050506040513d601f19601f820116820180604052508101906105059190610949565b6040518263ffffffff1660e01b815260040161052391815260200190565b6020604051808303816000875af1158015610542573d6000803e3d6000fd5b505050506040513d601f19601f820116820180604052508101906105669190610949565b50505050610584565b8361057981610962565b94505050505061012f565b60408051338152602081018390527fd7efb8fa81d5b6f15413f20428a60e0a70f6be8cd6f2bc98f3e95e7d69e75a12910160405180910390a150565b6003546001600160a01b031633146105ea5760405162461bcd60e51b815260040161012390610904565b47806106315760405162461bcd60e51b81526020600482015260166024820152754e6f2062616c616e636520746f20776974686472617760501b6044820152606401610123565b604051600090339083908381818185875af1925050503d8060008114610673576040519150601f19603f3d011682016040523d82523d6000602084013e610678565b606091505b50509050806106c05760405162461bcd60e51b81526020600482015260146024820152732330b4b632b2103a379039b2b7321022ba3432b960611b6044820152606401610123565b5050565b6003546001600160a01b031633146106ee5760405162461bcd60e51b815260040161012390610904565b60005b6000805460408051639e81699960e01b8152905147936001600160a01b0390931692639e8169999285926004808301939282900301818588803b15801561073757600080fd5b505af115801561074b573d6000803e3d6000fd5b505050505082811161075d57506108ae565b600080546040516361a4d4ef60e01b8152600481018490526001600160a01b03909116906361a4d4ef90602401602060405180830381865afa1580156107a7573d6000803e3d6000fd5b505050506040513d601f19601f820116820180604052508101906107cb9190610949565b600054604051636aef22d360e11b8152600481018390529192506001600160a01b03169063d5de45a690602401600060405180830381600087803b15801561081257600080fd5b505af1158015610826573d6000803e3d6000fd5b5050600154604051634a5c8c6f60e11b8152600481018590526001600160a01b0390911692506394b918de91506024016020604051808303816000875af1158015610875573d6000803e3d6000fd5b505050506040513d601f19601f820116820180604052508101906108999190610949565b50826108a481610962565b93505050506106f1565b60408051338152602081018390527fd181fe027f31a66850cb9f3ded8b33ab1a90bbb391935d4d9fd26090dac11a25910160405180910390a15050565b6000602082840312156108fd57600080fd5b5035919050565b60208082526025908201527f4f6e6c7920746865206f776e65722063616e2063616c6c20746869732066756e60408201526431ba34b7b760d91b606082015260800190565b60006020828403121561095b57600080fd5b5051919050565b60006001820161098257634e487b7160e01b600052601160045260246000fd5b506001019056fea2646970667358221220da14f347d017aefee2b41fc08409fb07db8330199f65232bf7613e814922c30064736f6c63430008140033",
  "devdoc": {
    "kind": "dev",
    "methods": {
      "openLeveragedPosition(uint256)": {
        "params": {
          "reserve": "The amount of ETH that we will keep in the contract as a reserve to prevent liquidation"
        }
      }
    },
    "version": 1
  },
  "userdoc": {
    "kind": "user",
    "methods": {
      "claimOwnership()": {
        "notice": "Claim ownership of the contract so that no one else can change your position or withdraw your funds"
      },
      "closeLeveragedPosition()": {
        "notice": "Close a leveraged position, iteratively withdrawing collateral, swapping it for CORN, and repaying the lending contract until the position is closed"
      },
      "openLeveragedPosition(uint256)": {
        "notice": "Open a leveraged position, iteratively borrowing CORN, swapping it for ETH, and adding it as collateral"
      },
      "withdraw()": {
        "notice": "Withdraw the ETH from the contract"
      }
    },
    "notice": "For Side quest onlyThis contract is used to leverage a user's position by borrowing CORN from the Lending contract then borrowing more CORN from the DEX to repay the initial borrow then repeating until the user has borrowed as much as they want",
    "version": 1
  },
  "storageLayout": {
    "storage": [
      {
        "astId": 2555,
        "contract": "contracts/Leverage.sol:Leverage",
        "label": "i_lending",
        "offset": 0,
        "slot": "0",
        "type": "t_contract(Lending)2531"
      },
      {
        "astId": 2558,
        "contract": "contracts/Leverage.sol:Leverage",
        "label": "i_cornDEX",
        "offset": 0,
        "slot": "1",
        "type": "t_contract(CornDEX)1652"
      },
      {
        "astId": 2561,
        "contract": "contracts/Leverage.sol:Leverage",
        "label": "i_corn",
        "offset": 0,
        "slot": "2",
        "type": "t_contract(Corn)1000"
      },
      {
        "astId": 2563,
        "contract": "contracts/Leverage.sol:Leverage",
        "label": "owner",
        "offset": 0,
        "slot": "3",
        "type": "t_address"
      }
    ],
    "types": {
      "t_address": {
        "encoding": "inplace",
        "label": "address",
        "numberOfBytes": "20"
      },
      "t_contract(Corn)1000": {
        "encoding": "inplace",
        "label": "contract Corn",
        "numberOfBytes": "20"
      },
      "t_contract(CornDEX)1652": {
        "encoding": "inplace",
        "label": "contract CornDEX",
        "numberOfBytes": "20"
      },
      "t_contract(Lending)2531": {
        "encoding": "inplace",
        "label": "contract Lending",
        "numberOfBytes": "20"
      }
    }
  }
}